:08022B000214000A0212000A8D
:0C01F400E4FFFE12020075B002E4FFFE02
:10020000EF4E7026FFFEE4FDFCC3ED9513E512648E
:1002100080F8EC64809850070DBD00010C80EA0F57
:0A022000BF00010EBE01DFBFF4DCD9
:01022A0022B1
:040154008E0E8F0F6D
:100158007B017A00D3EB950FE50E6480F8EA6480A2
:1001680098503090000075B0011201F475B004E4A5
:10017800FFFE12020075B008E4FFFE120200A3E5BC
:1001880082640B458370DFE5112BF5A00BBB0001E2
:0F0198000A80C1E50F2511F511E50E3510F510A0
:0101A7002235
:0400F3008E0E8F0FCF
:1000F7007B017A00D3EB950FE50E6480F8EA648004
:1001070098503C900000D3E5829515E5146480F87B
:10011700E583648098501B75B008E4FFFE12020067
:1001270075B0041201F475B001E4FFFE120200A3DA
:1001370080D4C3E5119BF5A00BBB00010A80B5C3B2
:0C014700E511950FF511E510950EF5106F
:010153002289
:0401A8008E0A8F0B21
:1001AC00D3E50B9511E5106480F8E50A648098405E
:1001BC0012E50B9511F50DE50A9510F50CAF0DFE3A
:1001CC00120154C3E50B9511E5106480F8E50A643F
:1001DC0080985013C3E511950BF50DE510950AF5B4
:0701EC000CAF0DFE1200F341
:0101F30022E9
:10008F00E4F510F5118511A0E580B4010D75080098
:10009F007509017F017E001201A8E580B4020D757C
:1000AF0008007509027F027E001201A8E580B404E2
:1000BF000D7508007509037F037E001201A8E58006
:1000CF00B4080D7508007509047F047E001201A89D
:1000DF00E580B410B37508007509057F057E001221
:0400EF0001A880A440
:03000000020003F8
:0C000300787FE4F6D8FD75811502004AF4
:10000F0002008FE493A3F8E493A34003F68001F278
:10001F0008DFF48029E493A3F85407240CC8C333F2
:10002F00C4540F4420C8834004F456800146F6DFC1
:10003F00E4800B010204081020408090022BE47E24
:10004F00019360BCA3FF543F30E509541FFEE493B6
:10005F00A360010ECF54C025E060A840B8E493A37D
:10006F00FAE493A3F8E493A3C8C582C8CAC583CAA8
:10007F00F0A3C8C582C8CAC583CADFE9DEE780BE60
:0102330000CA
:00000001FF
